:0400000002001132B7
:03000B000201717E
:20006A0075290C752A00752B37752C14752D05752E04752F0675303A7531007532007533D5
:20008A0000753400D200C201C202C203C204C205C206C207C208C209C20AC20BC20C020073
:0100AA000E47
:03000E0002029655
:2000AB0020B22074D82531402BE531FF04F5317402B53104C206D2057428B53117C208D2C3
:2000CB00078011753100300502D206C205300702D208C20720B41F74D82532402AE532FF0F
:2000EB0004F5327402B53204C20AD2097428B53216C20CD20B22753200300902D20AC209D3
:20010B00300B02D20CC20B22AD82AE83AFF0120709FC0C8D828E838FF0EC1206EEBC180A32
:20012B008D828E838FF0E40206EE22AD82AE83AFF0120709FC0C8D828E838FF0EC1206EE5F
:20014B00BC3C0A8D828E838FF0E40206EE2222052B743CB52B0F752B0030000990002A75FE
:20016B00F04002013622C022C0E0C0F0C082C083C007C006C005C004C003C002C001C00016
:20018B00C0D075D008758AD5758C3C30001D152CE52C7010752C14D20275D00012015A7597
:2001AB00D0088007740AB52C02C202152DE52D7005752D05B203152EE52E7005752E04D247
:2001CB000475D0001200AB75D008D0D0D000D001D002D003D004D005D006D007D083D082E0
:2001EB00D0F0D0E0D0223278FA79FAD8FED9FE22AE82AF83C007C0061201F2D006D007EE1D
:20020B0024FFFCEF34FFFD8C068D07EC4D70E52243B03F7F00EF2423F9879075F006EF84EA
:20022B00E5F090073893FE8EF005F07401800225E0D5F0FBF452B0C0071201F2D00743B0C3
:20024B003F0FBF060040CE300203C29722D29722AF8275F00AEF8490072993FE8E2375F0BD
:20026B000AEF84E5F090072993FF8F2422900733E493F59043B03F758901758C3C758AD5F2
:20028B00D2B9D2A9D28CD2AFD2B72212027830012B300028E529B52F23E52AB5301EE52B4C
:2002AB00700A7407B5340280037534077407B53415300204B2B7800ED2B7800A7407B53403
:2002CB0005753400D2B7E53424F85003020413E534240B83F582E534240C83F583E473134B
:2002EB00AEE1930F457BFA0403030303030302200606200A03020434753400D2B7C206C2A1
:20030B000A020434300508753405C20502043430090E90002F75F040120113C209020434CC
:20032B00200B0302043420040302043490002F75F040120113C20402043430050875340673
:20034B00C20502043430090E90003075F040120136C209020434200B030204342004030206
:20036B00043490003075F040120136C204020434300508753400C205020434200903020473
:20038B0034B201C20902043430070A753404C205C207020434200603020434753406C206D4
:2003AB00020434C200300508753402C20502043430091090002975F040120113752B00C21E
:2003CB00098066300B6330046090002975F040120113C2048053300509753400C205D20054
:2003EB00804730091090002A75F040120136752B00C2098034300B3130042E90002A75F02E
:20040B0040120136C2048021300A0AA200E433F534C20A8014300709753401C205C2078061
:20042B0008300605753403C206E53424F850030206AAE534240B83F582E534240C83F5833A
:20044B00E473AA53079C0852C85D060606050505040430023585298212025B75F00AE52A6E
:20046B008490072993FF8F2575F00AE52A84E5F090072993FF8F26900729E493FF8F27908D
:20048B000729E493FF8F280206E8900733E493FF8F23900733E493FF8F24900733E493FFDF
:2004AB008F25900733E493FF8F26900733E493FF8F27900733E493FF8F280206E8900734E0
:2004CB00E493FF8F23900735E493FF8F24900733E493FF8F2530010A900736E493FF8F26CD
:2004EB008008900737E493FF8F26900733E493FF8F27900733E493FF8F280206E830030858
:20050B00852F8212025B8010900733E493FF8F23900733E493FF8F2475F00AE53084900717
:20052B002993FF8F2575F00AE53084E5F090072993FF8F26900733E493FF8F27900733E4B9
:20054B0093FF8F280206E8852F8212025B30031E75F00AE5308490072993FF8F2575F00AE4
:20056B00E53084E5F090072993FF8F268010900733E493FF8F25900733E493FF8F269007EB
:20058B0033E493FF8F27900733E493FF8F280206E8300235852F8212025B75F00AE53084F6
:2005AB0090072993FF8F2575F00AE53084E5F090072993FF8F26900729E493FF8F279007C3
:2005CB0029E493FF8F280206E8900733E493FF8F23900733E493FF8F24900733E493FF8F16
:2005EB0025900733E493FF8F26900733E493FF8F27900733E493FF8F280206E885298212B7
:20060B00025B30031E75F00AE52A8490072993FF8F2575F00AE52A84E5F090072993FF8F61
:20062B00268010900733E493FF8F25900733E493FF8F26900733E493FF8F27900733E493D9
:20064B00FF8F28C2020206E830030885298212025B8010900733E493FF8F23900733E49388
:20066B00FF8F2475F00AE52A8490072993FF8F2575F00AE52A84E5F090072993FF8F267562
:20068B00F00AE52B8490072993FF8F2775F00AE52B84E5F090072993FF8F28C202803E85D1
:2006AB00298212025B75F00AE52A8490072993FF8F2575F00AE52A84E5F090072993FF8F55
:2006CB002675F00AE52B8490072993FF8F2775F00AE52B84E5F090072993FF8F2812021BCE
:0306EB000202996F
:1507290081E792A2E4A888E380A0FFC09DA4CE0400050201032B
:06004000E478FFF6D8FD94
:20001E007900E94400601B7A0090073E780175A000E493F2A308B8000205A0D9F4DAF27543
:02003E00A0FF21
:1B06EE0020F71130F6138883A88220F509F6A8837583002280FEF280F5F0220B
:200046007800E84400600A790175A000E4F309D8FC7800E84400600C7900900001E4F0A3B8
:04006600D8FCD9FAEF
:0D001100758134120725E582600302000EA0
:1C07090020F71430F6148883A88220F507E6A88375830022E280F7E49322E022FF
:0407250075820022B7
:00000001FF
