:0400000002001132B7
:03000B000201727D
:20006A0075290C752A00752B37752C14752D05752E04752F0675303A7531007532007533D5
:20008A0000753400D200C201C202C203C204C205C206C207C208C209C20AC20BC20C020073
:0100AA000E47
:03000E0002029754
:2000AB0020B22074D82531402BE531FF04F5317402B53104C206D2057428B53117C208D2C3
:2000CB00078011753100300502D206C205300702D208C20720B41F74D82532402AE532FF0F
:2000EB0004F5327402B53204C20AD2097428B53216C20CD20B22753200300902D20AC209D3
:20010B00300B02D20CC20B22AD82AE83AFF012070AFC0C8D828E838FF0EC1206EFBC180A30
:20012B008D828E838FF0E40206EF2222AD82AE83AFF012070AFC0C8D828E838FF0EC120629
:20014B00EFBC3C0A8D828E838FF0E40206EF2222052B743CB52B0F752B0030000990002A83
:20016B0075F04002013722C022C0E0C0F0C082C083C007C006C005C004C003C002C001C0A0
:20018B0000C0D075D008758AD5758C3C30001D152CE52C7010752C14D20275D00012015B0B
:2001AB0075D0088007740AB52C02C202152DE52D7005752D05B203152EE52E7005752E04A4
:2001CB00D20475D0001200AB75D008D0D0D000D001D002D003D004D005D006D007D083D090
:2001EB0082D0F0D0E0D0223278FA79FAD8FED9FE22AE82AF83C007C0061201F3D006D00788
:20020B00EE24FFFCEF34FFFD8C068D07EC4D70E52243B03F7F00EF2423F9879075F006EF80
:20022B0084E5F090073993FE8EF005F07401800225E0D5F0FBF452B0C0071201F3D00743ED
:20024B00B03F0FBF060040CE300203C29722D29722AF8275F00AEF8490072A93FE8E2375FC
:20026B00F00AEF84E5F090072A93FF8F2422900734E493F59043B03F758901758C3C758AD5
:20028B00D5D2B9D2A9D28CD2AFD2B72212027930012B300028E529B52F23E52AB5301EE5A1
:2002AB002B700A7407B5340280037534077407B53415300204B2B7800ED2B7800A7407B50C
:2002CB003405753400D2B7E53424F85003020414E534240B83F582E534240C83F583E47329
:2002EB0014AFE29410467CFB0403030303030302200606200A03020435753400D2B7C20647
:20030B00C20A020435300508753405C20502043530090E90002F75F040120113C20902043C
:20032B0035200B0302043520040302043590002F75F040120113C204020435300508753441
:20034B0006C20502043530090E90003075F040120137C209020435200B03020435200403FE
:20036B0002043590003075F040120137C204020435300508753400C2050204352009030271
:20038B000435B201C20902043530070A753404C205C207020435200603020435753406C2D2
:2003AB0006020435C200300508753402C20502043530091090002975F040120113752B00D8
:2003CB00C2098066300B6330046090002975F040120113C2048053300509753400C205D292
:2003EB0000804730091090002A75F040120137752B00C2098034300B3130042E90002A751D
:20040B00F040120137C2048021300A0AA200E433F534C20A8014300709753401C205C207F0
:20042B008008300605753403C206E53424F850030206ABE534240B83F582E534240C83F53C
:20044B0083E473AB54089D5309C95E060606050505040430023585298212025C75F00AE50C
:20046B002A8490072A93FF8F2575F00AE52A84E5F090072A93FF8F2690072AE493FF8F27F0
:20048B0090072AE493FF8F280206E9900734E493FF8F23900734E493FF8F24900734E49349
:2004AB00FF8F25900734E493FF8F26900734E493FF8F27900734E493FF8F280206E9900711
:2004CB0035E493FF8F23900736E493FF8F24900734E493FF8F2530010A900737E493FF8FBB
:2004EB00268008900738E493FF8F26900734E493FF8F27900734E493FF8F280206E9852FB5
:20050B008212025C30031E75F00AE5308490072A93FF8F2575F00AE53084E5F090072A934D
:20052B00FF8F268010900734E493FF8F25900734E493FF8F26900734E493FF8F27900734BF
:20054B00E493FF8F280206E9300308852F8212025C8010900734E493FF8F23900734E493CC
:20056B00FF8F2475F00AE5308490072A93FF8F2575F00AE53084E5F090072A93FF8F26903A
:20058B000734E493FF8F27900734E493FF8F280206E9300235852F8212025C75F00AE5306F
:2005AB008490072A93FF8F2575F00AE53084E5F090072A93FF8F2690072AE493FF8F279043
:2005CB00072AE493FF8F280206E9900734E493FF8F23900734E493FF8F24900734E493FF99
:2005EB008F25900734E493FF8F26900734E493FF8F27900734E493FF8F280206E985298236
:20060B0012025C30031E75F00AE52A8490072A93FF8F2575F00AE52A84E5F090072A93FFDB
:20062B008F268010900734E493FF8F25900734E493FF8F26900734E493FF8F27900734E4D9
:20064B0093FF8F28C2020206E930030885298212025C8010900734E493FF8F23900734E484
:20066B0093FF8F2475F00AE52A8490072A93FF8F2575F00AE52A84E5F090072A93FF8F2642
:20068B0075F00AE52B8490072A93FF8F2775F00AE52B84E5F090072A93FF8F28C202803EDF
:2006AB0085298212025C75F00AE52A8490072A93FF8F2575F00AE52A84E5F090072A93FF5C
:2006CB008F2675F00AE52B8490072A93FF8F2775F00AE52B84E5F090072A93FF8F28120258
:0406EB001C02029A51
:15072A0081E792A2E4A888E380A0FFC09DA4CE0400050201032A
:06004000E478FFF6D8FD94
:20001E007900E94400601B7A0090073F780175A000E493F2A308B8000205A0D9F4DAF27542
:02003E00A0FF21
:1B06EF0020F71130F6138883A88220F509F6A8837583002280FEF280F5F0220A
:200046007800E84400600A790175A000E4F309D8FC7800E84400600C7900900001E4F0A3B8
:04006600D8FCD9FAEF
:0D001100758134120726E582600302000E9F
:1C070A0020F71430F6148883A88220F507E6A88375830022E280F7E49322E022FE
:0407260075820022B6
:00000001FF
